:100000000C9438010C9469010C9469010C946901F9
:100010000C9469010C9469010C9469010C946901B8
:100020000C9469010C9469010C9469010C946901A8
:100030000C9469010C9469010C9469010C94690198
:100040000C9469010C9469010C9469010C94690188
:100050000C9469010C9469010C9469010C94A2053B
:100060000C9469010C9416060C94EC050C9469012F
:100070000C9469010C9469010C9469010C94690158
:100080000C9469010C9469010C9469010C94690148
:100090000C9469010C9469010C9469010C94690138
:1000A0000C9469010C9469010C9469010C94690128
:1000B0000C9469010C9469010C9469010C94690118
:1000C0000C9469010C9469010C9469010C94690108
:1000D0000C9469010C9469010C9469010C946901F8
:1000E0000C9469010C949E010C94CE010C94B60101
:1000F0000C94A4010C94CA010C94A8010C949301D3
:100100000C9497010C94C2020C94AE010C94C001A3
:100110000C948F010C94D1020C94BC010C94F3024A
:100120000C9489010C94E5020C94C4010C944C06C7
:100130000C94C9010C9495020C942B030C949B0114
:100140000C94B2010C942C0C0C9478030000200049
:100150002300260029002C002F003200000100009F
:1001600003010601090100002100240027002A00E4
:100170002D003000330001010000040107010A01D5
:1001800000002200250028002B002E003100340042
:1001900002010000050108010B0105050505070521
:1001A00008080808020202020A0A080804040404F3
:1001B000010101010101010103030303030303031F
:1001C000040707070C0C0C0C0C0C0C0C02020202AE
:1001D00006060606060606060B0B0B0B0B0B0B0B97
:1001E0000102102020080810204010204080020149
:1001F000020108040201010204081020408080402E
:10020000201008040201800402018040201008042C
:1002100002010804020101020408102040800102CA
:1002200004081020408000000A0B02090C0D0E0883
:1002300007030401000000000000000000000000AF
:1002400000000000000000000000000000000000AE
:10025000000012111000000000000000000000006B
:100260000000000000000000000000004C062C0C04
:1002700011241FBECFEFD1E2DEBFCDBF00E00CBF27
:1002800023E0A6E9B2E001C01D92A63AB207E1F769
:1002900012E0A0E0B2E0EAE3F0E200E00BBF02C04F
:1002A00007900D92A639B107D9F711E0C7E3D1E065
:1002B00000E006C021970109802FFE010E94BC0DBD
:1002C000C633D10780E00807A9F70E9484060C9482
:1002D0000B100C9400008150823108F05AC0E82FB6
:1002E000F0E08827E958FE4F8F4F0C94BC0D970122
:1002F0009B0189018F019301C9019E01A401A801FD
:10030000AE01B201B601BC01C001C901C401CA01FC
:10031000CE01809180008F77809380000895809136
:1003200080008F7DF9CF80918000877FF5CF84B5E5
:100330008F7784BD089584B58F7DFBCF8091B00009
:100340008F778093B00008958091B0008F7DF9CFB2
:10035000809190008F778093900008958091900015
:100360008F7DF9CF80919000877FF5CF8091A0009D
:100370008F778093A00008958091A0008F7DF9CFA2
:100380008091A000877FF5CF809120018F778093A7
:1003900020010895809120018F7DF9CF8091200167
:1003A000877FF5CF1F93CF93DF93282F30E0F9019C
:1003B000EA5DFD4F8491F901E052FE4FD491F901BD
:1003C000E656FE4FC491CC23A9F0162F81110E944E
:1003D0006B01EC2FF0E0EE0FFF1FE058FE4FA591F0
:1003E000B4918FB7F894EC91111108C0D095DE2329
:1003F000DC938FBFDF91CF911F910895DE2BF8CF53
:10040000CF93DF9390E0FC01E052FE4F249186569B
:100410009E4FFC0184918823D1F090E0880F991FB2
:10042000FC01EA59FE4FA591B491FC01E058FE4F42
:10043000C591D49161110EC09FB7F8948C91E22FB1
:10044000E0958E238C932881E223E8839FBFDF9180
:10045000CF9108958FB7F894EC91E22BEC938FBF76
:10046000F6CF3FB7F8948091F5029091F602A091F3
:10047000F702B091F80226B5A89B05C02F3F19F0EE
:100480000196A11DB11D3FBFBA2FA92F982F882714
:10049000BC01CD01620F711D811D911D42E0660FEF
:1004A000771F881F991F4A95D1F708958F929F92C1
:1004B000AF92BF92CF92DF92EF92FF924B015C011D
:1004C0000E9431026B017C010E9431026C197D098E
:1004D0008E099F09683E734081059105A8F321E0CC
:1004E000821A9108A108B10888EEC80E83E0D81ED0
:1004F000E11CF11C81149104A104B10429F7FF90BF
:10050000EF90DF90CF90BF90AF909F908F90089525
:100510002FB7F8946091F1027091F2028091F3028A
:100520009091F4022FBF08950895AF92BF92CF9299
:10053000DF92EF92FF920F931F93CF93DF936C01A3
:100540007B018B01040F151FEB015E01AE18BF0884
:10055000C017D10759F06991D601ED91FC91019036
:10056000F081E02DC6011995892B79F7C501DF913E
:10057000CF911F910F91FF90EF90DF90CF90BF90A0
:10058000AF900895FC01538D448D252F30E0842FCA
:1005900090E0821B930B541710F0CF9608950197AB
:1005A0000895FC01918D828D981761F0A28DAE0F98
:1005B000BF2FB11D5D968C91928D9F5F9F73928F1F
:1005C00090E008958FEF9FEF0895FC01918D828D4B
:1005D000981731F0828DE80FF11D858D90E0089518
:1005E0008FEF9FEF0895FC01918D228D892F90E070
:1005F000805C9F4F821B91098F739927089589EF23
:1006000092E00E94F30221E0892B09F420E0822F7E
:100610000895FC01A48DA80FB92FB11DA35ABF4F97
:100620002C91848D90E001968F739927848FA689F1
:10063000B7892C93A089B1898C91837080648C9345
:10064000938D848D981306C00288F389E02D8081F4
:100650008F7D80830895EF92FF920F931F93CF9326
:10066000DF93EC0181E0888F9B8D8C8D98131AC0ED
:10067000E889F989808185FF15C09FB7F894EE89D4
:10068000FF896083E889F989808183708064808331
:100690009FBF81E090E0DF91CF911F910F91FF907C
:1006A000EF900895F62E0B8D10E00F5F1F4F0F7324
:1006B0001127E02E8C8D8E110CC00FB607FCFACFDF
:1006C000E889F989808185FFF5CFCE010E94090371
:1006D000F1CFEB8DEC0FFD2FF11DE35AFF4FF082B0
:1006E0009FB7F8940B8FEA89FB8980818062CFCF16
:1006F000CF93DF93EC01888D8823B9F0AA89BB8959
:10070000E889F9898C9185FD03C0808186FD0DC043
:100710000FB607FCF7CF8C9185FFF2CF808185FF64
:10072000EDCFCE010E940903E9CFDF91CF9108956B
:1007300080E090E0892B29F00E94FF0281110E9445
:10074000000080E090E0892B49F080E090E0892B68
:1007500029F00E94000081110E94000080E090E0DA
:10076000892B49F080E090E0892B29F00E9400005D
:1007700081110E94000080E090E0892B49F080E028
:1007800090E0892B29F00E94000081110C94000058
:1007900008952091A0033091A103232B39F421E087
:1007A000FC018081882361F020E00AC0BC018091B7
:1007B0009C0390919D030E94DE0F21E0892BA1F7FD
:1007C000822F0895FC0101900020E9F73197AF01D5
:1007D000481B590BBC0189EF92E00C9495028F9253
:1007E0009F92AF92BF92CF92DF92EF92FF920F93C0
:1007F0001F93CF93DF93CDB7DEB7A1970FB6F894D1
:10080000DEBF0FBECDBF6C01990FEE08FF08F7FEEB
:1008100047C06DE289EF92E00E942B038C012227F2
:100820003327A9012C193D094E095F0919A2CE01F0
:1008300081967C019AE0892E912CA12CB12CCA01C1
:10084000B901A50194010E949A0D605DF7016293C0
:100850007F01211531054105510589F790E080E0C0
:10086000309719F0CF010E94E203080F191F8AE1A7
:1008700092E00E94E203800F911FA1960FB6F894B8
:10088000DEBF0FBECDBFDF91CF911F910F91FF90C3
:10089000EF90DF90CF90BF90AF909F908F90089592
:1008A000A701960119A28E010F5D1F4F8AE0C82E85
:1008B000D12CE12CF12CCA01B901A70196010E94AB
:1008C0009A0D605DF80162938F0121153105410594
:1008D000510589F7309729F0CF010E94E2038C017E
:1008E000C6CF10E000E0C3CFCF93DF939C01FC01A3
:1008F000EA5DFD4F8491F901E052FE4FD491F90178
:10090000E656FE4FC491CC23A9F081110E946B01E1
:10091000EC2FF0E0EE0FFF1FE45BFE4FA591B491CA
:10092000EC91ED2381E090E009F480E0DF91CF913C
:100930000C94EF0380E090E0F9CF90917B00977FDB
:1009400090937B008653806480937C0080917A0032
:10095000806480937A0080917A0086FDFCCF80913C
:100960007800909179000C94EF03CF93DF93EC0122
:1009700088819981009711F00E94600E1982188277
:100980001D821C821B821A82DF91CF910895FC0187
:1009900080819181009711F00C94600E0895FB0105
:1009A00044815581FC01248135812417350778F075
:1009B00080819181009759F0FB01608171816115FF
:1009C000710529F00E94EE0F21E0892B09F020E04B
:1009D000822F08950F931F93CF93DF938C01EB0128
:1009E000FC01808191810097E1F068817981611536
:1009F0007105A9F0428153812C813D814217530733
:100A000070F00E94E70F8C819D81F80195838483AB
:100A10001D821C82DF91CF911F910F9108950E943A
:100A2000600E88819981F801918380838A819B81FE
:100A3000938382838C819D8195838483198218821C
:100A40001B821A82E5CFEF92FF920F931F93CF93F1
:100A5000DF93EC017B018A0188819981009729F05D
:100A60002A813B812417350788F4B8016F5F7F4FD7
:100A70000E94E90E0097C9F0998388831B830A833B
:100A80002C813D81232B11F4FC0110821D830C83EA
:100A9000B701888199810E94E70FCE01DF91CF9144
:100AA0001F910F91FF90EF900895CE010E94B50421
:100AB000F4CFCF93DF93EC016115710571F0FB0169
:100AC00001900020E9F73197AF01461B570B0E94B8
:100AD0002305CE01DF91CF9108950E94B504F9CF8F
:100AE000CF93DF931F921F92CDB7DEB7FC01118227
:100AF0001082138212821582148269831A82BE01C7
:100B00006F5F7F4FFB0101900020E9F73197AF0144
:100B1000461B570B0E9423050F900F90DF91CF913A
:100B20000895FC01118210821382128215821482B0
:100B3000FB0101900020E9F73197AF01461B570BED
:100B40000C9423051F920F920FB60F9211242F932E
:100B50003F938F939F93AF93BF938091F1029091B6
:100B6000F202A091F302B091F4023091F00223E07E
:100B7000230F2D3758F50196A11DB11D2093F002CA
:100B80008093F1029093F202A093F302B093F402E7
:100B90008091F5029091F602A091F702B091F802CF
:100BA0000196A11DB11D8093F5029093F602A093CA
:100BB000F702B093F802BF91AF919F918F913F914F
:100BC0002F910F900FBE0F901F90189526E8230FBE
:100BD0000296A11DB11DD2CF1F920F920FB60F9298
:100BE00011240BB60F922F933F934F935F936F9304
:100BF0007F938F939F93AF93BF93EF93FF9389EF6F
:100C000092E00E940903FF91EF91BF91AF919F91F4
:100C10008F917F916F915F914F913F912F910F90A5
:100C20000BBE0F900FBE0F901F9018951F920F9242
:100C30000FB60F9211240BB60F922F938F939F93A1
:100C4000EF93FF93E0910903F0910A038081E09113
:100C50000F03F091100382FD1DC09081809112035B
:100C60008F5F8F7320911303821741F0E09112037D
:100C7000F0E0E750FD4F958F80931203FF91EF91C5
:100C80009F918F912F910F900BBE0F900FBE0F90E1
:100C90001F9018958081F2CFE9EFF2E01382128263
:100CA00088EE93E0A0E0B0E084839583A683B783C9
:100CB0008CE092E09183808385EC90E09587848737
:100CC00084EC90E09787868780EC90E0918B808B16
:100CD00081EC90E0938B828B82EC90E0958B848BFF
:100CE00086EC90E0978B868B118E128E138E148E6D
:100CF0006CE172E08CE993E00E9491056CE172E096
:100D000086E993E00C949105CF93DF93CDB7DEB7DE
:100D100068970FB6F894DEBF0FBECDBF789484B548
:100D2000826084BD84B5816084BD85B5826085BDE7
:100D300085B5816085BD80916E00816080936E0075
:100D40001092810080918100826080938100809167
:100D50008100816080938100809180008160809318
:100D600080008091B10084608093B1008091B000D8
:100D700081608093B00080919100826080939100A7
:100D800080919100816080939100809190008160BA
:100D9000809390008091A10082608093A100809157
:100DA000A10081608093A1008091A0008160809368
:100DB000A000809121018260809321018091210116
:100DC00081608093210180912001816080932001C6
:100DD00080917A00846080937A0080917A008260AA
:100DE00080937A0080917A00816080937A0080916C
:100DF0007A00806880937A001092C10061E08DE0F3
:100E00000E94000261E08CE00E94000261E08BE041
:100E10000E94000261E08AE00E94000261E089E035
:100E20000E94000260E082E00E94000260E083E035
:100E30000E94000260E084E00E94000260E085E021
:100E40000E940002E0910903F0910A0382E080838E
:100E5000E0910503F09106031082E0910703F09101
:100E600008038FEC808310921103E0910D03F09141
:100E70000E0386E08083E0910B03F0910C038081E8
:100E800080618083E0910B03F0910C038081886086
:100E90008083E0910B03F0910C0380818068808354
:100EA000E0910B03F0910C0380818F7D80838DE1B5
:100EB00092E00E94E2038AE192E00E94E20380E372
:100EC00092E00E94E2038AE192E00E94E203AA24F7
:100ED000A394B12C992493949FE4892E8091EE02DF
:100EE0009091EF028130910509F451C08230910553
:100EF00009F455C1892B09F040C089EF92E00E94A6
:100F0000F3022091E70218161906F4F421111EC00D
:100F100089EF92E00E94D10290919602E92FF0E0D1
:100F2000E956FD4F8A3051F080839F5F903518F06D
:100F300080929602E2CF90939602DFCF10821092B9
:100F400096029092E702D9CF2223D1F067E972E0AE
:100F5000CE0101960E949105BE016F5F7F4F8CE923
:100F600093E00E94EA04CE0101960E94C704109209
:100F7000E702B092EF02A092EE020E949803AECF79
:100F800082E090E09093EF028093EE02F6CF1C8A0D
:100F90001B8A1E8A1D8A188E1F8A60919C0370917D
:100FA0009D036115710541F04091A0035091A1038B
:100FB000CE0143960E9423056CE172E0CE010D96AE
:100FC0000E9491056CE172E0CE0107960E949105A6
:100FD00064E5CE0101960E947005BE016F5F7F4FF0
:100FE000CE0143960E94CF04182FCE0101960E9495
:100FF000C704112309F4B3C04F89588D4115510519
:1010000091F08B899C8941505109588F4F8BBC01BD
:101010006F5F7F4F0E94FC0FEB89FC898F89988D51
:10102000E80FF91F10828F89988D892B61F0EB886A
:10103000FC886CE270E0C7010E94D30F8C010E198E
:101040001F09892B11F40FEF1FEF6CE172E0CE0145
:1010500001960E9491058F89988D0097B9F07801CB
:101060008017910708F47C01EB89FC89EE0DFF1DC8
:10107000D08010826B897C89CE0101960E9459052F
:101080008B899C89E80EF91EF701D082BE016F5F43
:101090007F4FCE010D960E94EA04CE0101960E9478
:1010A000C7040F5F1F4FCF88D88CC016D10628F019
:1010B0009C2D8D2D6801092F182F6CE172E0CE0157
:1010C00001960E949105EF88F88CCE14DF04C0F4DD
:1010D0000E151F0508F47801EB89FC89EE0DFF1D44
:1010E000108110826B897C896C0D7D1DCE0101966B
:1010F0000E9459058B899C89E80EF91EF70110831F
:10110000BE016F5F7F4FCE0107960E94EA04CE01B9
:1011100001960E94C7048D859E850097B9F10E94B3
:10112000340C8B016F8178856115710599F14B85C0
:101130005C858CE993E00E942305109301020093E3
:10114000000261E08CE00E94D20164EF71E080E077
:1011500090E00E94560260E08CE00E94D201CE0135
:1011600007960E94C704CE010D960E94C704CE01C7
:1011700043960E94C70464E670E080E090E00E941D
:1011800056021092EF021092EE02F7CE60E070E08D
:10119000CB01C7CF8CE993E00E94B504CECF8091FC
:1011A000A0039091A103892B61F363E472E0CE0167
:1011B00001960E949105BE016F5F7F4F8CE993E01D
:1011C0000E94CF04182FCE0101960E94C70411235C
:1011D00009F452C086E492E00E94C90361E08111E3
:1011E00007C08BE492E00E94C9038823A9F060E065
:1011F00089E00E94D20160E0CE0101960E94700554
:10120000BE016F5F7F4F8CE993E00E94EA04CE013C
:1012100001960E94C704B5CF80E592E00E94C90301
:1012200061E0811107C085E592E00E94C90388232F
:1012300019F060E08AE0DDCF8AE592E00E94C90300
:1012400061E0811107C08FE592E00E94C903882305
:1012500019F060E08BE0CDCF84E692E00E94C903F4
:1012600061E0811107C089E692E00E94C9038823EA
:1012700011F260E08CE0BDCF6EE672E0CE01019627
:101280000E949105BE016F5F7F4F8CE993E00E9441
:10129000CF04182FCE0101960E94C704112309F430
:1012A000DBC180E792E00E94C9038823F1F10E942C
:1012B00088027093ED026093EC026091EC027091F1
:1012C000ED020091EA021091EB0290E080E00E94B2
:1012D000700C6B017C01B80190E080E00E94700C02
:1012E0009B01AC01C701B6010E94FE0C0E946B0D70
:1012F0007093E9026093E8022091E8023091E902DC
:1013000080910002909101022817390708F439CF23
:1013100086E390E00E949D048091EC029091ED02A2
:101320009093EB028093EA022CCF83E792E00E9435
:10133000C9038823A1F10E9488027093ED02609393
:10134000EC026091EC027091ED020091EA021091C2
:10135000EB0290E080E00E94700C6B017C01B80110
:1013600090E080E00E94700C9B01AC01C701B601C7
:101370000E94FE0C0E946B0D7093E9026093E802DC
:101380002091E8023091E9028091000290910102DF
:101390002817390708F4F5CE87E390E0BBCF86E73E
:1013A00092E00E94C9038823A1F10E9488027093F1
:1013B000ED026093EC026091EC027091ED020091FD
:1013C000EA021091EB0290E080E00E94700C6B0149
:1013D0007C01B80190E080E00E94700C9B01AC01A0
:1013E000C701B6010E94FE0C0E946B0D7093E902CA
:1013F0006093E8022091E8023091E90280910002B6
:10140000909101022817390708F4BBCE88E390E0D9
:1014100081CF89E792E00E94C9038823A1F10E944D
:1014200088027093ED026093EC026091EC0270917F
:10143000ED020091EA021091EB0290E080E00E9440
:10144000700C6B017C01B80190E080E00E94700C90
:101450009B01AC01C701B6010E94FE0C0E946B0DFE
:101460007093E9026093E8022091E8023091E9026A
:1014700080910002909101022817390708F481CE6B
:1014800089E390E047CF8CE792E00E94C90388236C
:10149000A1F10E9488027093ED026093EC026091CA
:1014A000EC027091ED020091EA021091EB0290E0E3
:1014B00080E00E94700C6B017C01B80190E080E03C
:1014C0000E94700C9B01AC01C701B6010E94FE0C8A
:1014D0000E946B0D7093E9026093E8022091E8028C
:1014E0003091E9028091000290910102281739079A
:1014F00008F447CE8AE390E00DCF8FE792E00E9498
:10150000C9038823A1F10E9488027093ED026093C1
:10151000EC026091EC027091ED020091EA021091F0
:10152000EB0290E080E00E94700C6B017C01B8013E
:1015300090E080E00E94700C9B01AC01C701B601F5
:101540000E94FE0C0E946B0D7093E9026093E8020A
:101550002091E8023091E90280910002909101020D
:101560002817390708F40DCE8BE390E0D3CE82E83C
:1015700092E00E94C9038823A1F10E94880270931F
:10158000ED026093EC026091EC027091ED0200912B
:10159000EA021091EB0290E080E00E94700C6B0177
:1015A0007C01B80190E080E00E94700C9B01AC01CE
:1015B000C701B6010E94FE0C0E946B0D7093E902F8
:1015C0006093E8022091E8023091E90280910002E4
:1015D000909101022817390708F4D3CD8CE390E0ED
:1015E00099CE85E892E00E94C903882309F4C9CD09
:1015F0000E9488027093ED026093EC026091EC020D
:101600007091ED020091EA021091EB0290E080E00F
:101610000E94700C6B017C01B80190E080E00E9498
:10162000700C9B01AC01C701B6010E94FE0C0E9428
:101630006B0D7093E9026093E8022091E80230910B
:10164000E90280910002909101022817390708F4FD
:1016500098CD8DE390E05ECE68E872E0CE01019611
:101660000E949105BE016F5F7F4F8CE993E00E945D
:10167000CF04182FCE0101960E94C704112309F44C
:1016800080CD8AE892E00E94C9038823B1F10E94CC
:1016900088027093ED026093EC026091EC0270910D
:1016A000ED020091EA021091EB0290E080E00E94CE
:1016B000700C6B017C01B80190E080E00E94700C1E
:1016C0009B01AC01C701B6010E94FE0C0E946B0D8C
:1016D0007093E9026093E8022091E8023091E902F8
:1016E00080910002909101022817390708F449CD32
:1016F00082E090E00E9474040FCE8DE892E00E9498
:10170000C9038823A1F10E9488027093ED026093BF
:10171000EC026091EC027091ED020091EA021091EE
:10172000EB0290E080E00E94700C6B017C01B8013C
:1017300090E080E00E94700C9B01AC01C701B601F3
:101740000E94FE0C0E946B0D7093E9026093E80208
:101750002091E8023091E90280910002909101020B
:101760002817390708F40DCD83E090E0C3CF80E956
:1017700092E00E94C9038823A1F10E94880270931D
:10178000ED026093EC026091EC027091ED02009129
:10179000EA021091EB0290E080E00E94700C6B0175
:1017A0007C01B80190E080E00E94700C9B01AC01CC
:1017B000C701B6010E94FE0C0E946B0D7093E902F6
:1017C0006093E8022091E8023091E90280910002E2
:1017D000909101022817390708F4D3CC84E090E0F7
:1017E00089CF83E992E00E94C903882309F4C9CC18
:1017F0000E9488027093ED026093EC026091EC020B
:101800007091ED020091EA021091EB0290E080E00D
:101810000E94700C6B017C01B80190E080E00E9496
:10182000700C9B01AC01C701B6010E94FE0C0E9426
:101830006B0D7093E9026093E8022091E802309109
:10184000E90280910002909101022817390708F4FB
:1018500098CC85E090E04ECF86E993E00E94C704E3
:101860008CE993E00C94C7041F93FC019927882707
:10187000BC01E89411911032E9F3193010F01E30D8
:10188000C8F31B3251F01D3249F4689406C00E941F
:101890005B0C610F711D811D911D119110531A3048
:1018A000B0F33EF490958095709561957F4F8F4F82
:1018B0009F4F1F910895592F482F372F262F660FBE
:1018C000771F881F991F660F771F881F991F620F48
:1018D000731F841F951F660F771F881F991F089518
:1018E000E89409C097FB3EF49095809570956195BA
:1018F0007F4F8F4F9F4F9923A9F0F92F96E9BB2770
:101900009395F695879577956795B795F111F8CFEB
:10191000FAF4BB0F11F460FF1BC06F5F7F4F8F4F56
:101920009F4F16C0882311F096E911C0772321F04C
:101930009EE8872F762F05C0662371F096E8862FE4
:1019400070E060E02AF09A95660F771F881FDAF73B
:10195000880F9695879597F9089597F99F6780E87E
:1019600070E060E008959FEF80EC089500240A94F1
:101970001616170618060906089500240A9412166A
:101980001306140605060895092E0394000C11F49D
:10199000882352F0BB0F40F4BF2B11F460FF04C04A
:1019A0006F5F7F4F8F4F9F4F089557FD9058440FA3
:1019B000551F59F05F3F71F04795880F97FB991FAE
:1019C00061F09F3F79F0879508951216130614066B
:1019D000551FF2CF4695F1DF08C0161617061806F8
:1019E000991FF1CF86957105610508940895E894D3
:1019F000BB2766277727CB0197F908955058BB2757
:101A0000AA270E94160D0C94C40C0E94B60C38F044
:101A10000E94BD0C20F039F49F3F19F426F40C9479
:101A2000B30C0EF4E095E7FB0C94AD0CE92F0E948B
:101A3000D50C58F3BA17620773078407950720F08F
:101A400079F4A6F50C94F70C0EF4E0950B2EBA2F52
:101A5000A02D0B01B90190010C01CA01A0011124B4
:101A6000FF27591B99F0593F50F4503E68F11A1660
:101A7000F040A22F232F342F4427585FF3CF4695F1
:101A800037952795A795F0405395C9F77EF41F1613
:101A9000BA0B620B730B840BBAF09150A1F0FF0FDD
:101AA000BB1F661F771F881FC2F70EC0BA0F621FC9
:101AB000731F841F48F4879577956795B795F795B9
:101AC0009E3F08F0B0CF9395880F08F09927EE0F4E
:101AD0009795879508950E94DD0C88F09F5798F0A0
:101AE000B92F9927B751B0F0E1F0660F771F881F23
:101AF000991F1AF0BA95C9F714C0B13091F00E943D
:101B0000F70CB1E008950C94F70C672F782F882715
:101B1000B85F39F0B93FCCF3869577956795B39563
:101B2000D9F73EF490958095709561957F4F8F4FD2
:101B30009F4F0895A1E21A2EAA1BBB1BFD010DC0E9
:101B4000AA1FBB1FEE1FFF1FA217B307E407F5076D
:101B500020F0A21BB30BE40BF50B661F771F881F49
:101B6000991F1A9469F760957095809590959B01DF
:101B7000AC01BD01CF010895EE0FFF1F881F8BBF81
:101B80000790F691E02D19940F931F93CF93DF9355
:101B90008230910510F482E090E0E091A403F0918E
:101BA000A50330E020E0B0E0A0E0309799F42115E3
:101BB000310509F44AC0281B390B24303105D8F50A
:101BC0008A819B816115710589F1FB019383828371
:101BD000FE0111C0408151810281138148175907CC
:101BE000E0F04817590799F4109761F012960C939A
:101BF000129713961C933296CF01DF91CF911F91CC
:101C00000F9108950093A4031093A503F4CF211519
:101C1000310551F04217530738F0A901DB019A0151
:101C2000BD01DF01F801C1CFEF01F9CF9093A5030A
:101C30008093A403CDCFFE01E20FF31F8193919314
:101C40002250310939832883D7CF2091A2033091C4
:101C5000A303232B41F42091040230910502309319
:101C6000A3032093A20320910202309103022115C5
:101C7000310541F42DB73EB740910602509107025D
:101C8000241B350BE091A203F091A303E217F307A5
:101C9000A0F42E1B3F0B2817390778F0AC014E5FDC
:101CA0005F4F2417350748F04E0F5F1F5093A30373
:101CB0004093A203819391939FCFF0E0E0E09CCF0B
:101CC000CF93DF930097E9F0FC01329713821282E1
:101CD000A091A403B091A503ED0130E020E010979E
:101CE000A1F420813181820F931F2091A2033091B2
:101CF000A3032817390709F061C0F093A303E09309
:101D0000A203DF91CF910895EA01CE17DF07E8F52E
:101D10004A815B819E0141155105B1F7E901FB83C1
:101D2000EA8349915991C40FD51FEC17FD0761F45F
:101D3000808191810296840F951FE90199838883A0
:101D4000828193819B838A83F0E0E0E012968D91FB
:101D50009C9113970097B9F52D913C911197CD0166
:101D60000296820F931F2091A2033091A30328179C
:101D7000390739F6309751F51092A5031092A40354
:101D8000B093A303A093A203BCCFD383C2834081AB
:101D90005181840F951FC817D90761F44E5F5F4FBB
:101DA00088819981480F591F518340838A819B8183
:101DB000938382832115310509F0B0CFF093A503F9
:101DC000E093A4039ECFFD01DC01C0CF13821282F9
:101DD000D7CF4F925F926F927F928F929F92AF92E6
:101DE000BF92CF92DF92EF92FF920F931F93CF9308
:101DF000DF938C01009799F4CB01DF91CF911F9174
:101E00000F91FF90EF90DF90CF90BF90AF909F9099
:101E10008F907F906F905F904F900C94C40DFC0159
:101E2000E60FF71F9C0122503109E217F30708F46F
:101E3000AEC0D901CD91DC911197C617D70720F11B
:101E4000C530D10578F0CE0104978617970750F07A
:101E5000C61BD70B2297C193D1936D937C93CF016F
:101E60000E94600EC801DF91CF911F910F91FF90EA
:101E7000EF90DF90CF90BF90AF909F908F907F902A
:101E80006F905F904F9008955B01AC1ABD0A4C01B2
:101E90008C0E9D1EA091A403B091A503512C412C42
:101EA000F12CE12C109731F58091A2039091A303BE
:101EB0008815990509F05CC04616570608F058C009
:101EC0008091020290910302009741F48DB79EB772
:101ED0004091060250910702841B950BE817F90701
:101EE00008F055C0F093A303E093A203F9017183B6
:101EF0006083B8CF8D919C91119712966C90129738
:101F000013967C901397A815B90559F56C0142E01A
:101F1000C40ED11CCA14DB0420F1AC014A195B09C0
:101F2000DA011296159780F06282738251834083A2
:101F3000D9016D937C93E114F10471F0D7011396EC
:101F4000FC93EE9312978ECF22968C0F9D1FF90172
:101F500091838083F301EFCFF093A503E093A40373
:101F600081CF4816590608F42C017D01D3019ACF80
:101F7000CB010E94C40D7C01009749F0AE01B8016D
:101F80000E94CA0FC8010E94600E87016BCF10E04B
:101F900000E068CFFB01DC0102C001900D924150CE
:101FA0005040D8F70895FC018191861721F08823CD
:101FB000D9F7992708953197CF010895FB01DC01E6
:101FC0008D91019080190110D9F3990B0895FB01AF
:101FD000DC0101900D920020E1F70895FB01DC0186
:101FE0004150504030F08D910190801919F400203B
:101FF000B9F7881B990B0895FB01DC014150504053
:1020000048F001900D920020C9F701C01D92415087
:102010005040E0F7089511E0C7E3D1E000E006C0CA
:10202000802FFE010E94BC0D2196011DC833D107EF
:0A20300080E00807A9F7F894FFCF3D
:10203A0064000000A6038000000000002B03950244
:10204A00C2027803F302D102E5020D0A003C417292
:10205A006475696E6F2069732072656164793E00E8
:10206A003C57616974696E6720666F722064617497
:10207A00613E00444F00444F303100444F3030003D
:10208A00444F313100444F313000444F3231004423
:10209A004F323000444F333100444F333000410057
:1020AA0041300041310041320041330041340041A6
:1020BA0035004136004137004400443000443100C5
:0620CA0044320044330023
:00000001FF
